{
  "_format": "hh-sol-artifact-1",
  "contractName": "PinController",
  "sourceName": "contracts/PinController.sol",
  "abi": [
    {
      "inputs": [],
      "stateMutability": "nonpayable",
      "type": "constructor"
    },
    {
      "inputs": [
        {
          "internalType": "uint8",
          "name": "",
          "type": "uint8"
        }
      ],
      "name": "pinStatus",
      "outputs": [
        {
          "internalType": "enum PinController.PinStatus",
          "name": "",
          "type": "uint8"
        }
      ],
      "stateMutability": "view",
      "type": "function"
    },
    {
      "inputs": [
        {
          "internalType": "uint8",
          "name": "_pin",
          "type": "uint8"
        },
        {
          "internalType": "enum PinController.PinStatus",
          "name": "_pinStatus",
          "type": "uint8"
        }
      ],
      "name": "setPinStatus",
      "outputs": [],
      "stateMutability": "nonpayable",
      "type": "function"
    }
  ],
  "bytecode": "0x608060405234801561001057600080fd5b50336000806101000a81548173ffffffffffffffffffffffffffffffffffffffff021916908373ffffffffffffffffffffffffffffffffffffffff1602179055506102dc806100606000396000f3fe608060405234801561001057600080fd5b50600436106100365760003560e01c8063d60465ce1461003b578063eecd990f1461006b575b600080fd5b61005560048036038101906100509190610182565b610087565b6040516100629190610226565b60405180910390f35b61008560048036038101906100809190610266565b6100a7565b005b60016020528060005260406000206000915054906101000a900460ff1681565b60008054906101000a900473ffffffffffffffffffffffffffffffffffffffff1673ffffffffffffffffffffffffffffffffffffffff163373ffffffffffffffffffffffffffffffffffffffff16146100ff57600080fd5b80600160008460ff1660ff16815260200190815260200160002060006101000a81548160ff0219169083600181111561013b5761013a6101af565b5b02179055505050565b600080fd5b600060ff82169050919050565b61015f81610149565b811461016a57600080fd5b50565b60008135905061017c81610156565b92915050565b60006020828403121561019857610197610144565b5b60006101a68482850161016d565b91505092915050565b7f4e487b7100000000000000000000000000000000000000000000000000000000600052602160045260246000fd5b600281106101ef576101ee6101af565b5b50565b6000819050610200826101de565b919050565b6000610210826101f2565b9050919050565b61022081610205565b82525050565b600060208201905061023b6000830184610217565b92915050565b6002811061024e57600080fd5b50565b60008135905061026081610241565b92915050565b6000806040838503121561027d5761027c610144565b5b600061028b8582860161016d565b925050602061029c85828601610251565b915050925092905056fea2646970667358221220eccdbb56ddaaedac95455e6a6f37169d73be88f4192e62cf7ae226a02a7483cf64736f6c63430008150033",
  "linkReferences": {},
  "deployedLinkReferences": {}
}